{
  "_format": "hh-sol-artifact-1",
  "contractName": "MyContractV2_AddNewEvent",
  "sourceName": "contracts/0-MyContract_AddNewEvent.sol",
  "abi": [
    {
      "anonymous": false,
      "inputs": [
        {
          "indexed": false,
          "internalType": "string",
          "name": "id",
          "type": "string"
        },
        {
          "indexed": false,
          "internalType": "uint256",
          "name": "age",
          "type": "uint256"
        }
      ],
      "name": "AddAge",
      "type": "event"
    },
    {
      "anonymous": false,
      "inputs": [
        {
          "indexed": false,
          "internalType": "string",
          "name": "id",
          "type": "string"
        },
        {
          "indexed": false,
          "internalType": "string",
          "name": "name",
          "type": "string"
        }
      ],
      "name": "CreateSuccess",
      "type": "event"
    },
    {
      "inputs": [],
      "name": "VERSION_1",
      "outputs": [
        {
          "internalType": "uint8",
          "name": "",
          "type": "uint8"
        }
      ],
      "stateMutability": "view",
      "type": "function"
    },
    {
      "inputs": [],
      "name": "VERSION_2",
      "outputs": [
        {
          "internalType": "uint8",
          "name": "",
          "type": "uint8"
        }
      ],
      "stateMutability": "view",
      "type": "function"
    },
    {
      "inputs": [
        {
          "internalType": "string",
          "name": "id",
          "type": "string"
        },
        {
          "internalType": "string",
          "name": "name",
          "type": "string"
        }
      ],
      "name": "addFoo",
      "outputs": [],
      "stateMutability": "nonpayable",
      "type": "function"
    },
    {
      "inputs": [
        {
          "internalType": "string",
          "name": "id",
          "type": "string"
        },
        {
          "internalType": "string",
          "name": "name",
          "type": "string"
        },
        {
          "internalType": "uint256",
          "name": "age",
          "type": "uint256"
        }
      ],
      "name": "addFoo",
      "outputs": [],
      "stateMutability": "nonpayable",
      "type": "function"
    }
  ],
  "bytecode": "0x608060405234801561001057600080fd5b50610493806100206000396000f3fe608060405234801561001057600080fd5b506004361061004c5760003560e01c8063077191171461005157806326c20e5f1461006d5780638ca4d5841461008b578063e2c2678e146100a9575b600080fd5b61006b60048036038101906100669190610200565b6100c5565b005b610075610108565b604051610082919061029d565b60405180910390f35b61009361010d565b6040516100a0919061029d565b60405180910390f35b6100c360048036038101906100be91906102ee565b610112565b005b7f51a0ea025f85677517549ceabb9fce8d41c7aa8131b592337e4575b327d34258848484846040516100fa94939291906103e1565b60405180910390a150505050565b600181565b600281565b7f51a0ea025f85677517549ceabb9fce8d41c7aa8131b592337e4575b327d342588585858560405161014794939291906103e1565b60405180910390a17fc06dd9e75a1e754cfc86e0ee3401d153ca2f1d6ae79bc78f4b1b90e26052a4998585836040516101829392919061042b565b60405180910390a15050505050565b600080fd5b600080fd5b600080fd5b600080fd5b600080fd5b60008083601f8401126101c0576101bf61019b565b5b8235905067ffffffffffffffff8111156101dd576101dc6101a0565b5b6020830191508360018202830111156101f9576101f86101a5565b5b9250929050565b6000806000806040858703121561021a57610219610191565b5b600085013567ffffffffffffffff81111561023857610237610196565b5b610244878288016101aa565b9450945050602085013567ffffffffffffffff81111561026757610266610196565b5b610273878288016101aa565b925092505092959194509250565b600060ff82169050919050565b61029781610281565b82525050565b60006020820190506102b2600083018461028e565b92915050565b6000819050919050565b6102cb816102b8565b81146102d657600080fd5b50565b6000813590506102e8816102c2565b92915050565b60008060008060006060868803121561030a57610309610191565b5b600086013567ffffffffffffffff81111561032857610327610196565b5b610334888289016101aa565b9550955050602086013567ffffffffffffffff81111561035757610356610196565b5b610363888289016101aa565b93509350506040610376888289016102d9565b9150509295509295909350565b600082825260208201905092915050565b82818337600083830152505050565b6000601f19601f8301169050919050565b60006103c08385610383565b93506103cd838584610394565b6103d6836103a3565b840190509392505050565b600060408201905081810360008301526103fc8186886103b4565b905081810360208301526104118184866103b4565b905095945050505050565b610425816102b8565b82525050565b600060408201905081810360008301526104468185876103b4565b9050610455602083018461041c565b94935050505056fea2646970667358221220ee408d9bff932220f00909b126925e0ad8dd8d2a05bfe92f00593a1f0cad9c9164736f6c63430008100033",
  "linkReferences": {},
  "deployedLinkReferences": {}
}