{
  "_format": "hh-sol-artifact-1",
  "contractName": "MyContractV1_AddEventParam",
  "sourceName": "contracts/1-MyContract_AddEventParam.sol",
  "abi": [
    {
      "anonymous": false,
      "inputs": [
        {
          "indexed": false,
          "internalType": "string",
          "name": "id",
          "type": "string"
        },
        {
          "indexed": false,
          "internalType": "string",
          "name": "name",
          "type": "string"
        }
      ],
      "name": "CreateSuccess",
      "type": "event"
    },
    {
      "inputs": [],
      "name": "VERSION_1",
      "outputs": [
        {
          "internalType": "uint8",
          "name": "",
          "type": "uint8"
        }
      ],
      "stateMutability": "view",
      "type": "function"
    },
    {
      "inputs": [
        {
          "internalType": "string",
          "name": "id",
          "type": "string"
        },
        {
          "internalType": "string",
          "name": "name",
          "type": "string"
        }
      ],
      "name": "addFoo",
      "outputs": [],
      "stateMutability": "nonpayable",
      "type": "function"
    }
  ],
  "bytecode": "0x608060405234801561001057600080fd5b506102b3806100206000396000f3fe608060405234801561001057600080fd5b50600436106100365760003560e01c8063077191171461003b57806326c20e5f14610057575b600080fd5b6100556004803603810190610050919061012c565b610075565b005b61005f6100b8565b60405161006c91906101c9565b60405180910390f35b7f51a0ea025f85677517549ceabb9fce8d41c7aa8131b592337e4575b327d34258848484846040516100aa9493929190610242565b60405180910390a150505050565b600181565b600080fd5b600080fd5b600080fd5b600080fd5b600080fd5b60008083601f8401126100ec576100eb6100c7565b5b8235905067ffffffffffffffff811115610109576101086100cc565b5b602083019150836001820283011115610125576101246100d1565b5b9250929050565b60008060008060408587031215610146576101456100bd565b5b600085013567ffffffffffffffff811115610164576101636100c2565b5b610170878288016100d6565b9450945050602085013567ffffffffffffffff811115610193576101926100c2565b5b61019f878288016100d6565b925092505092959194509250565b600060ff82169050919050565b6101c3816101ad565b82525050565b60006020820190506101de60008301846101ba565b92915050565b600082825260208201905092915050565b82818337600083830152505050565b6000601f19601f8301169050919050565b600061022183856101e4565b935061022e8385846101f5565b61023783610204565b840190509392505050565b6000604082019050818103600083015261025d818688610215565b90508181036020830152610272818486610215565b90509594505050505056fea2646970667358221220365c18fa214d0197642a9161c1ffea9902073dfc877897db14724626877661b164736f6c63430008100033",
  "linkReferences": {},
  "deployedLinkReferences": {}
}