{
  "_format": "hh-sol-artifact-1",
  "contractName": "MyContractV2_AddEventParam",
  "sourceName": "contracts/1-MyContract_AddEventParam.sol",
  "abi": [
    {
      "anonymous": false,
      "inputs": [
        {
          "indexed": false,
          "internalType": "string",
          "name": "id",
          "type": "string"
        },
        {
          "indexed": false,
          "internalType": "string",
          "name": "name",
          "type": "string"
        },
        {
          "indexed": false,
          "internalType": "uint256",
          "name": "age",
          "type": "uint256"
        }
      ],
      "name": "CreateSuccess",
      "type": "event"
    },
    {
      "anonymous": false,
      "inputs": [
        {
          "indexed": false,
          "internalType": "string",
          "name": "id",
          "type": "string"
        },
        {
          "indexed": false,
          "internalType": "string",
          "name": "name",
          "type": "string"
        }
      ],
      "name": "CreateSuccess",
      "type": "event"
    },
    {
      "inputs": [],
      "name": "VERSION_1",
      "outputs": [
        {
          "internalType": "uint8",
          "name": "",
          "type": "uint8"
        }
      ],
      "stateMutability": "view",
      "type": "function"
    },
    {
      "inputs": [],
      "name": "VERSION_2",
      "outputs": [
        {
          "internalType": "uint8",
          "name": "",
          "type": "uint8"
        }
      ],
      "stateMutability": "view",
      "type": "function"
    },
    {
      "inputs": [
        {
          "internalType": "string",
          "name": "id",
          "type": "string"
        },
        {
          "internalType": "string",
          "name": "name",
          "type": "string"
        }
      ],
      "name": "addFoo",
      "outputs": [],
      "stateMutability": "nonpayable",
      "type": "function"
    },
    {
      "inputs": [
        {
          "internalType": "string",
          "name": "id",
          "type": "string"
        },
        {
          "internalType": "string",
          "name": "name",
          "type": "string"
        },
        {
          "internalType": "uint256",
          "name": "age",
          "type": "uint256"
        }
      ],
      "name": "addFoo",
      "outputs": [],
      "stateMutability": "nonpayable",
      "type": "function"
    }
  ],
  "bytecode": "0x608060405234801561001057600080fd5b50610471806100206000396000f3fe608060405234801561001057600080fd5b506004361061004c5760003560e01c8063077191171461005157806326c20e5f1461006d5780638ca4d5841461008b578063e2c2678e146100a9575b600080fd5b61006b600480360381019061006691906101c7565b6100c5565b005b610075610108565b6040516100829190610264565b60405180910390f35b61009361010d565b6040516100a09190610264565b60405180910390f35b6100c360048036038101906100be91906102b5565b610112565b005b7f51a0ea025f85677517549ceabb9fce8d41c7aa8131b592337e4575b327d34258848484846040516100fa94939291906103a8565b60405180910390a150505050565b600181565b600281565b7fb5886824b2d76179205efe6e4c01291a1a9d8ad9b2d88dd950810f096ff4a70a85858585856040516101499594939291906103f2565b60405180910390a15050505050565b600080fd5b600080fd5b600080fd5b600080fd5b600080fd5b60008083601f84011261018757610186610162565b5b8235905067ffffffffffffffff8111156101a4576101a3610167565b5b6020830191508360018202830111156101c0576101bf61016c565b5b9250929050565b600080600080604085870312156101e1576101e0610158565b5b600085013567ffffffffffffffff8111156101ff576101fe61015d565b5b61020b87828801610171565b9450945050602085013567ffffffffffffffff81111561022e5761022d61015d565b5b61023a87828801610171565b925092505092959194509250565b600060ff82169050919050565b61025e81610248565b82525050565b60006020820190506102796000830184610255565b92915050565b6000819050919050565b6102928161027f565b811461029d57600080fd5b50565b6000813590506102af81610289565b92915050565b6000806000806000606086880312156102d1576102d0610158565b5b600086013567ffffffffffffffff8111156102ef576102ee61015d565b5b6102fb88828901610171565b9550955050602086013567ffffffffffffffff81111561031e5761031d61015d565b5b61032a88828901610171565b9350935050604061033d888289016102a0565b9150509295509295909350565b600082825260208201905092915050565b82818337600083830152505050565b6000601f19601f8301169050919050565b6000610387838561034a565b935061039483858461035b565b61039d8361036a565b840190509392505050565b600060408201905081810360008301526103c381868861037b565b905081810360208301526103d881848661037b565b905095945050505050565b6103ec8161027f565b82525050565b6000606082019050818103600083015261040d81878961037b565b9050818103602083015261042281858761037b565b905061043160408301846103e3565b969550505050505056fea264697066735822122087f4c610ab1f833be54aa0cb35f8a6e7cc79bcc22e29676c624a620e8735aee964736f6c63430008100033",
  "linkReferences": {},
  "deployedLinkReferences": {}
}