{
  "_format": "hh-sol-artifact-1",
  "contractName": "MyContractV1_EncodedData",
  "sourceName": "contracts/MyContractV2_EncodedData.sol",
  "abi": [
    {
      "anonymous": false,
      "inputs": [
        {
          "indexed": false,
          "internalType": "string",
          "name": "id",
          "type": "string"
        },
        {
          "indexed": false,
          "internalType": "bytes",
          "name": "data",
          "type": "bytes"
        },
        {
          "indexed": false,
          "internalType": "uint24",
          "name": "version",
          "type": "uint24"
        }
      ],
      "name": "CreateSuccess",
      "type": "event"
    },
    {
      "inputs": [],
      "name": "VERSION_1",
      "outputs": [
        {
          "internalType": "uint8",
          "name": "",
          "type": "uint8"
        }
      ],
      "stateMutability": "view",
      "type": "function"
    },
    {
      "inputs": [
        {
          "internalType": "string",
          "name": "id",
          "type": "string"
        },
        {
          "internalType": "string",
          "name": "name",
          "type": "string"
        }
      ],
      "name": "addFoo",
      "outputs": [],
      "stateMutability": "nonpayable",
      "type": "function"
    }
  ],
  "bytecode": "0x608060405234801561001057600080fd5b506103d4806100206000396000f3fe608060405234801561001057600080fd5b50600436106100365760003560e01c8063077191171461003b57806326c20e5f14610057575b600080fd5b61005560048036038101906100509190610154565b610075565b005b61005f6100e0565b60405161006c91906101f1565b60405180910390f35b6000828260405160200161008a92919061026a565b60405160208183030381529060405290507f5c42559bdac0a7c59f63c9d91d89359c53a048c567888c57a5b5670f221ac08985858360016040516100d19493929190610357565b60405180910390a15050505050565b600181565b600080fd5b600080fd5b600080fd5b600080fd5b600080fd5b60008083601f840112610114576101136100ef565b5b8235905067ffffffffffffffff811115610131576101306100f4565b5b60208301915083600182028301111561014d5761014c6100f9565b5b9250929050565b6000806000806040858703121561016e5761016d6100e5565b5b600085013567ffffffffffffffff81111561018c5761018b6100ea565b5b610198878288016100fe565b9450945050602085013567ffffffffffffffff8111156101bb576101ba6100ea565b5b6101c7878288016100fe565b925092505092959194509250565b600060ff82169050919050565b6101eb816101d5565b82525050565b600060208201905061020660008301846101e2565b92915050565b600082825260208201905092915050565b82818337600083830152505050565b6000601f19601f8301169050919050565b6000610249838561020c565b935061025683858461021d565b61025f8361022c565b840190509392505050565b6000602082019050818103600083015261028581848661023d565b90509392505050565b600081519050919050565b600082825260208201905092915050565b60005b838110156102c85780820151818401526020810190506102ad565b60008484015250505050565b60006102df8261028e565b6102e98185610299565b93506102f98185602086016102aa565b6103028161022c565b840191505092915050565b600062ffffff82169050919050565b6000819050919050565b600061034161033c610337846101d5565b61031c565b61030d565b9050919050565b61035181610326565b82525050565b6000606082019050818103600083015261037281868861023d565b9050818103602083015261038681856102d4565b90506103956040830184610348565b9594505050505056fea264697066735822122078bbba5b83b20e73b69efe54a6ee3ead76c89668feccc1710e49101435b9378e64736f6c63430008100033",
  "linkReferences": {},
  "deployedLinkReferences": {}
}